S01B00004C696E6561725374657070657253797374656D2E7372656346
S11300000C94B4000C94BE000C94BE000C94BE007E
S11300100C94BE000C94BE000C94BE000C94BE0064
S11300200C94BE000C94BE000C94BE000C94BE0054
S11300300C94BE000C94BE000C94BE000C94BE0044
S11300400C94BE000C94BE000C94BE000C94BE0034
S11300500C94BE000C94BE000C94BE000C94BE0024
S11300600C94BE000C94BE000103070A0D11141772
S11300701A1C1F2225282A2D2F323437393C3E40A2
S1130080434547494B4E50525456585A5C5E606241
S1130090646667696B6D6F7072747677797B7C7E4A
S11300A0808183848687898A8C8D8F90929394969D
S11300B097999A9B9D9E9FA0A2A3A4A5A7A8A9AA2D
S11300C0ABADAEAFB0B1B2B3B4B6B7B8B9BABBBCEE
S11300D0BDBEBFC0C1C2C3C4C5C5C6C7C8C9CACBDB
S11300E0CCCDCDCECFD0D1D1D2D3D4D5D5D6D7D8EF
S11300F0D8D9DADADBDCDCDDDEDEDFE0E0E1E2E227
S1130100E3E3E4E5E5E6E6E7E7E8E8E9E9EAEAEB7C
S1130110EBECECEDEDEEEEEFEFF0F0F0F1F1F2F2EE
S1130120F2F3F3F3F4F4F5F5F5F6F6F6F7F7F7F77B
S1130130F8F8F8F9F9F9F9FAFAFAFAFBFBFBFBFB20
S1130140FCFCFCFCFCFDFDFDFDFDFDFDFEFEFEFEDC
S1130150FEFEFEFEFFFFFFFFFFFFFFFFFFFFFFFFAF
S1130160FFFFFFFFFFFFFFFF11241FBECFEFD8E00B
S1130170DEBFCDBF0E94C0000C94C4000C940000EC
S10F0180E8E6F0E08491FECFF894FFCF95
S9030000FC
